{
  "_format": "hh-sol-artifact-1",
  "contractName": "WavePortal",
  "sourceName": "contracts/WavePortal.sol",
  "abi": [
    {
      "inputs": [],
      "stateMutability": "nonpayable",
      "type": "constructor"
    },
    {
      "inputs": [
        {
          "internalType": "address",
          "name": "senderAddress",
          "type": "address"
        }
      ],
      "name": "getSenderCount",
      "outputs": [
        {
          "internalType": "uint256",
          "name": "",
          "type": "uint256"
        }
      ],
      "stateMutability": "view",
      "type": "function"
    },
    {
      "inputs": [],
      "name": "getTotalWaves",
      "outputs": [
        {
          "internalType": "uint256",
          "name": "",
          "type": "uint256"
        }
      ],
      "stateMutability": "view",
      "type": "function"
    },
    {
      "inputs": [
        {
          "internalType": "address",
          "name": "",
          "type": "address"
        }
      ],
      "name": "senderCount",
      "outputs": [
        {
          "internalType": "uint256",
          "name": "",
          "type": "uint256"
        }
      ],
      "stateMutability": "view",
      "type": "function"
    },
    {
      "inputs": [],
      "name": "wave",
      "outputs": [],
      "stateMutability": "nonpayable",
      "type": "function"
    }
  ],
  "bytecode": "0x608060405234801561001057600080fd5b5061003c6040518060600160405280602581526020016108e66025913961004160201b6102791760201c565b6101c4565b6100dd816040516024016100559190610142565b6040516020818303038152906040527f41304fac000000000000000000000000000000000000000000000000000000007bffffffffffffffffffffffffffffffffffffffffffffffffffffffff19166020820180517bffffffffffffffffffffffffffffffffffffffffffffffffffffffff83818316178352505050506100e060201b60201c565b50565b60008151905060006a636f6e736f6c652e6c6f679050602083016000808483855afa5050505050565b600061011482610164565b61011e818561016f565b935061012e818560208601610180565b610137816101b3565b840191505092915050565b6000602082019050818103600083015261015c8184610109565b905092915050565b600081519050919050565b600082825260208201905092915050565b60005b8381101561019e578082015181840152602081019050610183565b838111156101ad576000848401525b50505050565b6000601f19601f8301169050919050565b610713806101d36000396000f3fe608060405234801561001057600080fd5b506004361061004c5760003560e01c80636fe15b44146100515780639a2cdc081461005b578063a887ba6214610079578063c1bbf309146100a9575b600080fd5b6100596100d9565b005b610063610189565b604051610070919061058a565b60405180910390f35b610093600480360381019061008e9190610488565b6101d4565b6040516100a0919061058a565b60405180910390f35b6100c360048036038101906100be9190610488565b6101ec565b6040516100d0919061058a565b60405180910390f35b60018060003373ffffffffffffffffffffffffffffffffffffffff1673ffffffffffffffffffffffffffffffffffffffff168152602001908152602001600020600082825461012891906105c1565b92505081905550600160008082825461014191906105c1565b925050819055506101876040518060400160405280600d81526020017f257320686173207761766564210000000000000000000000000000000000000081525033610312565b565b60006101cc6040518060400160405280601781526020017f5765206861766520256420746f74616c207761766573210000000000000000008152506000546103ae565b600054905090565b60016020528060005260406000206000915090505481565b600080600160008473ffffffffffffffffffffffffffffffffffffffff1673ffffffffffffffffffffffffffffffffffffffff1681526020019081526020016000205490506102706040518060400160405280601e81526020017f546869732073656e646572206861732077617665642025642074696d65730000815250826103ae565b80915050919050565b61030f8160405160240161028d9190610508565b6040516020818303038152906040527f41304fac000000000000000000000000000000000000000000000000000000007bffffffffffffffffffffffffffffffffffffffffffffffffffffffff19166020820180517bffffffffffffffffffffffffffffffffffffffffffffffffffffffff838183161783525050505061044a565b50565b6103aa828260405160240161032892919061052a565b6040516020818303038152906040527f319af333000000000000000000000000000000000000000000000000000000007bffffffffffffffffffffffffffffffffffffffffffffffffffffffff19166020820180517bffffffffffffffffffffffffffffffffffffffffffffffffffffffff838183161783525050505061044a565b5050565b61044682826040516024016103c492919061055a565b6040516020818303038152906040527f9710a9d0000000000000000000000000000000000000000000000000000000007bffffffffffffffffffffffffffffffffffffffffffffffffffffffff19166020820180517bffffffffffffffffffffffffffffffffffffffffffffffffffffffff838183161783525050505061044a565b5050565b60008151905060006a636f6e736f6c652e6c6f679050602083016000808483855afa5050505050565b600081359050610482816106c6565b92915050565b60006020828403121561049a57600080fd5b60006104a884828501610473565b91505092915050565b6104ba81610617565b82525050565b60006104cb826105a5565b6104d581856105b0565b93506104e5818560208601610653565b6104ee816106b5565b840191505092915050565b61050281610649565b82525050565b6000602082019050818103600083015261052281846104c0565b905092915050565b6000604082019050818103600083015261054481856104c0565b905061055360208301846104b1565b9392505050565b6000604082019050818103600083015261057481856104c0565b905061058360208301846104f9565b9392505050565b600060208201905061059f60008301846104f9565b92915050565b600081519050919050565b600082825260208201905092915050565b60006105cc82610649565b91506105d783610649565b9250827fffffffffffffffffffffffffffffffffffffffffffffffffffffffffffffffff0382111561060c5761060b610686565b5b828201905092915050565b600061062282610629565b9050919050565b600073ffffffffffffffffffffffffffffffffffffffff82169050919050565b6000819050919050565b60005b83811015610671578082015181840152602081019050610656565b83811115610680576000848401525b50505050565b7f4e487b7100000000000000000000000000000000000000000000000000000000600052601160045260246000fd5b6000601f19601f8301169050919050565b6106cf81610617565b81146106da57600080fd5b5056fea26469706673582212200d2d2f6de21c868d80816b74eb02fd97e1dfef82e67bc33737e48a65485a658c64736f6c63430008000033596f20796f2c204920616d206120636f6e747261637420616e64204920616d20736d617274",
  "linkReferences": {},
  "deployedLinkReferences": {}
}