{
  "_format": "hh-sol-artifact-1",
  "contractName": "WavePortal",
  "sourceName": "contracts/WavePortal.sol",
  "abi": [
    {
      "inputs": [],
      "stateMutability": "nonpayable",
      "type": "constructor"
    },
    {
      "anonymous": false,
      "inputs": [
        {
          "indexed": true,
          "internalType": "address",
          "name": "from",
          "type": "address"
        },
        {
          "indexed": false,
          "internalType": "uint256",
          "name": "timestamp",
          "type": "uint256"
        },
        {
          "indexed": false,
          "internalType": "string",
          "name": "message",
          "type": "string"
        }
      ],
      "name": "NewWave",
      "type": "event"
    },
    {
      "inputs": [],
      "name": "getAllWaves",
      "outputs": [
        {
          "components": [
            {
              "internalType": "address",
              "name": "waver",
              "type": "address"
            },
            {
              "internalType": "string",
              "name": "message",
              "type": "string"
            },
            {
              "internalType": "uint256",
              "name": "timestamp",
              "type": "uint256"
            }
          ],
          "internalType": "struct WavePortal.Wave[]",
          "name": "",
          "type": "tuple[]"
        }
      ],
      "stateMutability": "view",
      "type": "function"
    },
    {
      "inputs": [
        {
          "internalType": "address",
          "name": "senderAddress",
          "type": "address"
        }
      ],
      "name": "getSenderCount",
      "outputs": [
        {
          "internalType": "uint256",
          "name": "",
          "type": "uint256"
        }
      ],
      "stateMutability": "view",
      "type": "function"
    },
    {
      "inputs": [],
      "name": "getTotalWaves",
      "outputs": [
        {
          "internalType": "uint256",
          "name": "",
          "type": "uint256"
        }
      ],
      "stateMutability": "view",
      "type": "function"
    },
    {
      "inputs": [
        {
          "internalType": "address",
          "name": "",
          "type": "address"
        }
      ],
      "name": "senderCount",
      "outputs": [
        {
          "internalType": "uint256",
          "name": "",
          "type": "uint256"
        }
      ],
      "stateMutability": "view",
      "type": "function"
    },
    {
      "inputs": [
        {
          "internalType": "string",
          "name": "_message",
          "type": "string"
        }
      ],
      "name": "wave",
      "outputs": [],
      "stateMutability": "nonpayable",
      "type": "function"
    }
  ],
  "bytecode": "0x60806040523480156200001157600080fd5b506200005d6040518060400160405280601381526020017f4920414d20534d41525420434f4e5452414354000000000000000000000000008152506200006360201b620005231760201c565b620001f7565b62000103816040516024016200007a919062000170565b6040516020818303038152906040527f41304fac000000000000000000000000000000000000000000000000000000007bffffffffffffffffffffffffffffffffffffffffffffffffffffffff19166020820180517bffffffffffffffffffffffffffffffffffffffffffffffffffffffff83818316178352505050506200010660201b60201c565b50565b60008151905060006a636f6e736f6c652e6c6f679050602083016000808483855afa5050505050565b60006200013c8262000194565b6200014881856200019f565b93506200015a818560208601620001b0565b6200016581620001e6565b840191505092915050565b600060208201905081810360008301526200018c81846200012f565b905092915050565b600081519050919050565b600082825260208201905092915050565b60005b83811015620001d0578082015181840152602081019050620001b3565b83811115620001e0576000848401525b50505050565b6000601f19601f8301169050919050565b610ded80620002076000396000f3fe608060405234801561001057600080fd5b50600436106100575760003560e01c8063449d46c01461005c5780639a2cdc0814610078578063a887ba6214610096578063bd43a908146100c6578063c1bbf309146100e4575b600080fd5b61007660048036038101906100719190610869565b610114565b005b6100806102e2565b60405161008d9190610aea565b60405180910390f35b6100b060048036038101906100ab9190610840565b61032d565b6040516100bd9190610aea565b60405180910390f35b6100ce610345565b6040516100db9190610a31565b60405180910390f35b6100fe60048036038101906100f99190610840565b610496565b60405161010b9190610aea565b60405180910390f35b60018060003373ffffffffffffffffffffffffffffffffffffffff1673ffffffffffffffffffffffffffffffffffffffff16815260200190815260200160002060008282546101639190610bfc565b92505081905550600160008082825461017c9190610bfc565b925050819055506101c36040518060400160405280601d81526020017f2573206861732077617665642077697468206d6573736167652025732100000081525033836105bc565b600260405180606001604052803373ffffffffffffffffffffffffffffffffffffffff16815260200183815260200142815250908060018154018082558091505060019003906000526020600020906003020160009091909190915060008201518160000160006101000a81548173ffffffffffffffffffffffffffffffffffffffff021916908373ffffffffffffffffffffffffffffffffffffffff1602179055506020820151816001019080519060200190610282929190610720565b506040820151816002015550503373ffffffffffffffffffffffffffffffffffffffff167f5f7e16dc676677766a70e9c5628aa6c54ddb8b6e5188e2ae1e1f17f1ffbea71642836040516102d7929190610b05565b60405180910390a250565b60006103256040518060400160405280601781526020017f5765206861766520256420746f74616c2077617665732100000000000000000081525060005461065b565b600054905090565b60016020528060005260406000206000915090505481565b60606002805480602002602001604051908101604052809291908181526020016000905b8282101561048d57838290600052602060002090600302016040518060600160405290816000820160009054906101000a900473ffffffffffffffffffffffffffffffffffffffff1673ffffffffffffffffffffffffffffffffffffffff1673ffffffffffffffffffffffffffffffffffffffff1681526020016001820180546103f290610cd0565b80601f016020809104026020016040519081016040528092919081815260200182805461041e90610cd0565b801561046b5780601f106104405761010080835404028352916020019161046b565b820191906000526020600020905b81548152906001019060200180831161044e57829003601f168201915b5050505050815260200160028201548152505081526020019060010190610369565b50505050905090565b600080600160008473ffffffffffffffffffffffffffffffffffffffff1673ffffffffffffffffffffffffffffffffffffffff16815260200190815260200160002054905061051a6040518060400160405280601e81526020017f546869732073656e646572206861732077617665642025642074696d657300008152508261065b565b80915050919050565b6105b9816040516024016105379190610a53565b6040516020818303038152906040527f41304fac000000000000000000000000000000000000000000000000000000007bffffffffffffffffffffffffffffffffffffffffffffffffffffffff19166020820180517bffffffffffffffffffffffffffffffffffffffffffffffffffffffff83818316178352505050506106f7565b50565b6106568383836040516024016105d493929190610a75565b6040516020818303038152906040527fe0e9ad4f000000000000000000000000000000000000000000000000000000007bffffffffffffffffffffffffffffffffffffffffffffffffffffffff19166020820180517bffffffffffffffffffffffffffffffffffffffffffffffffffffffff83818316178352505050506106f7565b505050565b6106f38282604051602401610671929190610aba565b6040516020818303038152906040527f9710a9d0000000000000000000000000000000000000000000000000000000007bffffffffffffffffffffffffffffffffffffffffffffffffffffffff19166020820180517bffffffffffffffffffffffffffffffffffffffffffffffffffffffff83818316178352505050506106f7565b5050565b60008151905060006a636f6e736f6c652e6c6f679050602083016000808483855afa5050505050565b82805461072c90610cd0565b90600052602060002090601f01602090048101928261074e5760008555610795565b82601f1061076757805160ff1916838001178555610795565b82800160010185558215610795579182015b82811115610794578251825591602001919060010190610779565b5b5090506107a291906107a6565b5090565b5b808211156107bf5760008160009055506001016107a7565b5090565b60006107d66107d184610b66565b610b35565b9050828152602081018484840111156107ee57600080fd5b6107f9848285610c8e565b509392505050565b60008135905061081081610da0565b92915050565b600082601f83011261082757600080fd5b81356108378482602086016107c3565b91505092915050565b60006020828403121561085257600080fd5b600061086084828501610801565b91505092915050565b60006020828403121561087b57600080fd5b600082013567ffffffffffffffff81111561089557600080fd5b6108a184828501610816565b91505092915050565b60006108b683836109c3565b905092915050565b6108c781610c52565b82525050565b6108d681610c52565b82525050565b60006108e782610ba6565b6108f18185610bc9565b93508360208202850161090385610b96565b8060005b8581101561093f578484038952815161092085826108aa565b945061092b83610bbc565b925060208a01995050600181019050610907565b50829750879550505050505092915050565b600061095c82610bb1565b6109668185610bda565b9350610976818560208601610c9d565b61097f81610d8f565b840191505092915050565b600061099582610bb1565b61099f8185610beb565b93506109af818560208601610c9d565b6109b881610d8f565b840191505092915050565b60006060830160008301516109db60008601826108be565b50602083015184820360208601526109f38282610951565b9150506040830151610a086040860182610a13565b508091505092915050565b610a1c81610c84565b82525050565b610a2b81610c84565b82525050565b60006020820190508181036000830152610a4b81846108dc565b905092915050565b60006020820190508181036000830152610a6d818461098a565b905092915050565b60006060820190508181036000830152610a8f818661098a565b9050610a9e60208301856108cd565b8181036040830152610ab0818461098a565b9050949350505050565b60006040820190508181036000830152610ad4818561098a565b9050610ae36020830184610a22565b9392505050565b6000602082019050610aff6000830184610a22565b92915050565b6000604082019050610b1a6000830185610a22565b8181036020830152610b2c818461098a565b90509392505050565b6000604051905081810181811067ffffffffffffffff82111715610b5c57610b5b610d60565b5b8060405250919050565b600067ffffffffffffffff821115610b8157610b80610d60565b5b601f19601f8301169050602081019050919050565b6000819050602082019050919050565b600081519050919050565b600081519050919050565b6000602082019050919050565b600082825260208201905092915050565b600082825260208201905092915050565b600082825260208201905092915050565b6000610c0782610c84565b9150610c1283610c84565b9250827fffffffffffffffffffffffffffffffffffffffffffffffffffffffffffffffff03821115610c4757610c46610d02565b5b828201905092915050565b6000610c5d82610c64565b9050919050565b600073ffffffffffffffffffffffffffffffffffffffff82169050919050565b6000819050919050565b82818337600083830152505050565b60005b83811015610cbb578082015181840152602081019050610ca0565b83811115610cca576000848401525b50505050565b60006002820490506001821680610ce857607f821691505b60208210811415610cfc57610cfb610d31565b5b50919050565b7f4e487b7100000000000000000000000000000000000000000000000000000000600052601160045260246000fd5b7f4e487b7100000000000000000000000000000000000000000000000000000000600052602260045260246000fd5b7f4e487b7100000000000000000000000000000000000000000000000000000000600052604160045260246000fd5b6000601f19601f8301169050919050565b610da981610c52565b8114610db457600080fd5b5056fea26469706673582212201a4784a94daaefcd5d4fb1e85bb22df3570a6efd12dd994b3db4b5b8aa20e5a564736f6c63430008000033",
  "linkReferences": {},
  "deployedLinkReferences": {}
}